:100000000C9440000C9448030C945B030C9468001F
:100010000C9468000C9468000C9468000C946800C0
:100020000C9468000C946E030C9468000C946800A7
:100030000C9468000C9468000C9468000C946800A0
:100040000C9468000C9468000C9468000C94680090
:100050000C9468000C9468000C9468000C94680080
:100060000C9468000C9468000C9468000C94680070
:100070000C9468000C9468000C946800FA0F32101D
:1000800011241FBECFEFD8E0DEBFCDBF11E0A0E04E
:10009000B1E0EAECF1E202C005900D92A230B107A6
:1000A000D9F721E0A2E0B1E001C01D92AB32B20766
:1000B000E1F710E0CFE3D0E004C02197FE010E94F9
:1000C0006210CE33D107C9F70E94250D0C94C010E1
:1000D0000C940000E5ECF0E080818083E4ECF0E03B
:1000E00080818F6C8083E0ECF0E080818083E1ECA4
:1000F000F0E0808188618083E2ECF0E080818660BE
:10010000808308959091C00095FFFCCF8093C60036
:10011000089583E291E00E94870C2FEF83EC99E031
:10012000215080409040E1F700C0000083E291E060
:100130000E94C00C2FEF89E698E12150804090404A
:10014000E1F700C00000089583E291E00E946A0C8C
:100150002FEF83EC99E0215080409040E1F700C000
:10016000000083E291E00E94C00C2FEF89E698E145
:10017000215080409040E1F700C00000089583E2E4
:1001800091E00E946A0C2FEF81EE94E021508040B4
:100190009040E1F700C0000083E291E00E94C00CB3
:1001A0002FEF89E698E1215080409040E1F700C0B0
:1001B0000000089583E291E00E94870C2FEF8EE506
:1001C00095E0215080409040E1F700C0000083E2BC
:1001D00091E00E94C00C2FEF89E698E12150804009
:1001E0009040E1F700C00000089583E291E00E9492
:1001F0006A0C2FEF80E792E0215080409040E1F7B9
:1002000000C0000083E291E00E94C00C2FEF82E565
:1002100097E0215080409040E1F700C00000089531
:1002200083E291E00E94870C2FEF80E792E021505B
:1002300080409040E1F700C0000083E291E00E941E
:10024000C00C2FEF82E597E0215080409040E1F70D
:1002500000C0000008951F93CF93DF931EE1D0E00C
:10026000C0E060E08FE191E00E94D0039695879511
:1002700096958795C80FD91F115099F7CE016EE159
:1002800070E00E943A10862FDF91CF911F91089560
:10029000CF93DF9300D0CDB7DEB79A8389836623EF
:1002A00059F0BE016F5F7F4FCB010E94D80C0F90B9
:1002B0000F90DF91CF910895BE016F5F7F4FCB010B
:1002C0000E94D80CEECFCF93DF9300D0CDB7DEB72E
:1002D0009A838983662389F0BE016F5F7F4FCB01CC
:1002E0000E94D80CBE016F5F7F4FCB010E94E20CD1
:1002F0000F900F90DF91CF910895BE016F5F7F4FF8
:10030000CB010E94D80CBE016F5F7F4FCB010E94D2
:10031000E20CE2CFCF93DF9300D0CDB7DEB79A8364
:100320008983662359F0BE016F5F7F4FCB010E9426
:10033000E20C0F900F90DF91CF910895BE016F5F97
:100340007F4FCB010E94E20CEECFCF93DF9300D022
:10035000CDB7DEB79A838983662389F0BE016F5FCC
:100360007F4FCB010E94E20CBE016F5F7F4FCB013C
:100370000E94DD0C0F900F90DF91CF910895BE0188
:100380006F5F7F4FCB010E94E20CBE016F5F7F4F1A
:10039000CB010E94DD0CE2CFCF93DF9300D0CDB72D
:1003A000DEB79A838983662359F0BE016F5F7F4F62
:1003B000CB010E94DD0C0F900F90DF91CF9108953B
:1003C000BE016F5F7F4FCB010E94DD0CEECFCF935C
:1003D000DF9300D0CDB7DEB79A838983662389F097
:1003E000BE016F5F7F4FCB010E94DD0CBE016F5FCE
:1003F0007F4FCB010E94E70C0F900F90DF91CF91C0
:100400000895BE016F5F7F4FCB010E94DD0CBE01DE
:100410006F5F7F4FCB010E94E70CE2CFCF93DF935A
:1004200000D0CDB7DEB79A838983662359F0BE0129
:100430006F5F7F4FCB010E94E70C0F900F90DF9111
:10044000CF910895BE016F5F7F4FCB010E94E70CF3
:10045000EECFCF93DF9300D0CDB7DEB79A838983F9
:10046000662389F0BE016F5F7F4FCB010E94D80CDD
:10047000BE016F5F7F4FCB010E94E70C0F900F9082
:10048000DF91CF910895BE016F5F7F4FCB010E9436
:10049000D80CBE016F5F7F4FCB010E94E70CE2CF0B
:1004A000CF9310921E0180912201811109C00E94F8
:1004B0002B0180931D018A3128F081E08093220175
:1004C000CF9108950E94A40080911E018F5F8093B8
:1004D0001E010E942B0180931D018A3170F70E943A
:1004E000DA000E942B0180931D018A3130F7C5E0AC
:1004F0000E94F5000E942B0180931D018A31E8F6CD
:10050000C150B1F780911E01883068F2109222012B
:10051000D7CFCF9310921E0180912201811109C083
:100520000E942B0180931D018A3128F081E0809385
:100530002201CF9108950E94890080911E018F5F52
:1005400080931E010E942B0180931D018A3170F758
:100550000E94DA000E942B0180931D018A3130F73E
:10056000C5E00E94F5000E942B0180931D018A3195
:10057000E8F6C150B1F780911E01883068F2109200
:100580002201D7CFFF920F931F93CF93DF93C1E048
:10059000D1E080912201811106C0DF91CF911F919E
:1005A0000F91FF9008950E942B0180931D0190915F
:1005B0002001992351F0893140F483E291E00E94B7
:1005C000C00C8091200181113DC080911D01895195
:1005D0008530A0F462E383E291E00E94340C2FEFB7
:1005E00086E191E1215080409040E1F700C0000099
:1005F000D09320010E942B0180931D010E942B01AA
:1006000080931D018E518C3358F462E383E291E0B4
:100610000E94340CD09320010E942B0180931D0175
:100620000E942B0180931D018A3508F4B2CF1092ED
:10063000220183E291E00E94C00C0E942B01809372
:100640001D01A7CF10E00E94F5000E942B018093AE
:100650001D01893198F010922001F12C0C2F10E02F
:100660000F5F1F4F0E9410010E942B0180931D01FC
:10067000893140F010922001CF5FA3CF1F5FC117D7
:1006800010F7EBCFF394F016110661F35CF3F4CF9F
:100690008F938FB78F939F938FE59AEE0197F1F722
:1006A00000C0000081E080930501E09A9F918F9146
:1006B0008FBF8F9118958F938FB78F939F938FE5EF
:1006C0009AEE0197F1F700C0000081E080930401E9
:1006D000E19A9F918F918FBF8F9118951F921FB6AE
:1006E0001F9211248F9380910201882341F012B848
:1006F000109202018F911F901FBE1F90189580E2EB
:1007000082B981E080930201F5CFDC01FB011196F3
:100710007C936E9314964C93208181E090E001C00D
:10072000880F4A95EAF78095822380830895F8948C
:1007300081B18C6081B98DB3E1E0F0E0DF0102C0EE
:10074000AA0FBB1F6A95E2F78A2B8DBBA9E6B0E022
:100750003C91CF0101C0880F4A95EAF701C0EE0F26
:100760002A95EAF78E2B832B8C93789408958FE546
:100770009AEE0197F1F700C000008CB321E030E061
:1007800001C0220F6A95EAF7822B8CBB0895109264
:100790007C0086E880937A00089510927A0008958C
:1007A00080917C00807E80937C0080917C006770CB
:1007B000682B60937C0080917A00806480937A003B
:1007C00080917A0084FFFCCF80917A0080618093D1
:1007D0007A00209178008091790090E0982F882706
:1007E000820F911D0895E5ECF0E080818083E4ECB8
:1007F000F0E080818F6C8083E0ECF0E0808180838A
:10080000E1ECF0E0808188618083E2ECF0E08081BF
:100810008660808308950C94F3038091C00087FF65
:10082000FCCF8091C60008958091C00085FFFCCF69
:100830006093C60008950F931F93CF93DF93182FF3
:10084000092FEB016991611105C0DF91CF911F91D3
:100850000F910895812F902F0E941404F3CF0F93CE
:10086000FC01DB017183608353834283248305830E
:100870003C9141E050E0CA0101C0880F0A95EAF7B7
:1008800001C0440F2A95EAF7842B832B8C930F9198
:100890000895DC011296ED91FC91808110820895FB
:1008A000CF93DF93EC010E944904EA81FB818081B0
:1008B0009C8121E030E001C0220F9A95EAF7822B5B
:1008C0008083DF91CF910895CF93DF93EC010E9455
:1008D0004904EA81FB8180819D8121E030E001C0F3
:1008E000220F9A95EAF7822B8083DF91CF910895AA
:1008F000CF93DF93D82FC92F0E9450048FE19EE43D
:100900000197F1F700C000008D2F9C2F0E94640416
:100910008FE19EE40197F1F700C00000DF91CF91D5
:100920000895CF93DF93D82FC92F0E9450042FE74B
:1009300088E391E0215080409040E1F700C0000042
:100940008D2F9C2F0E9449042FE788E391E02150CE
:1009500080409040E1F700C00000DF91CF91089502
:10096000CF93DF93D82FC92F0E9464042FE78AE129
:1009700096E0215080409040E1F700C000008D2FAC
:100980009C2F0E9449042FE78AE196E02150804085
:100990009040E1F700C00000DF91CF910895CF9320
:1009A000DF93D82FC92F0E9478042FE78AE196E0C1
:1009B000215080409040E1F700C000008D2F9C2F17
:1009C0000E9449042FE78AE196E021508040904040
:1009D000E1F700C00000DF91CF910895089580EA0B
:1009E000809300011092B90080E28093B8000895CE
:1009F000FC0180E88083CF010C94EF04982F937062
:100A0000891305C0880F806A8093000108958FEFD5
:100A10000895FA0194EA24E89093BC008091BC0008
:100A200087FFFCCF809100018093BB002093BC0026
:100A30008091BC0087FFFCCF8091B900883161F7BD
:100A400084EA8093BC008091BC0087FFFCCF80913A
:100A500000018093BB0084E88093BC008091BC00BF
:100A600087FFFCCF7093BB0084E88093BC0080912B
:100A7000BC0087FFFCCF6093BB0084E88093BC0080
:100A80008091BC0087FFFCCF8091BC0087FFFCCF2A
:100A900084EA8093BC008091BC0087FFFCCF8091EA
:100AA00000018F5F8093BB0084E88093BC0080913D
:100AB000BC0087FFFCCF84E88093BC008091BC0021
:100AC00087FFFCCF8091BB00808384E98093BC00CA
:100AD00080E0089594EA34E89093BC008091BC00D3
:100AE00087FFFCCF809100018093BB003093BC0056
:100AF0008091BC0087FFFCCF8091B900883161F7FD
:100B000084EA8093BC008091BC0087FFFCCF809179
:100B100000018093BB0084E88093BC008091BC00FE
:100B200087FFFCCF7093BB0084E88093BC0080916A
:100B3000BC0087FFFCCF6093BB0084E88093BC00BF
:100B40008091BC0087FFFCCF84EA8093BC00809139
:100B5000BC0087FFFCCF809100018F5F8093BB00BA
:100B600084E88093BC008091BC0087FFFCCF84ECBC
:100B7000211105C084E98093BC0080E008952130F4
:100B800009F484E88093BC009091BC0097FFFCCFEF
:100B9000FA019091BB0091932150AF01E9CF94EA03
:100BA00024E89093BC008091BC0087FFFCCF80912B
:100BB00000018093BB002093BC008091BC0087FFA4
:100BC000FCCF8091B900883161F784EA8093BC0042
:100BD0008091BC0087FFFCCF809100018093BB0017
:100BE00084E88093BC008091BC0087FFFCCF7093A9
:100BF000BB0084E88093BC008091BC0087FFFCCFE1
:100C00006093BB0084E88093BC008091BC0087FFA8
:100C1000FCCF4093BB0084E88093BC008091BC0073
:100C200087FFFCCF84E98093BC0080E00895FB013E
:100C3000260F372F311DDC018C918150990B862BAB
:100C40009F2B2817390718F09C012F5F3F4F822FE9
:100C50008E1B24EA34E82093BC009091BC0097FFDF
:100C6000FCCF909100019093BB003093BC00909119
:100C7000BC0097FFFCCF9091B900983161F794EADE
:100C80009093BC009091BC0097FFFCCF9091000125
:100C90009093BB0094E89093BC009091BC0097FFA8
:100CA000FCCFF093BB0094E89093BC009091BC0003
:100CB00097FFFCCFE093BB0094E89093BC00909129
:100CC000BC0097FFFCCF982F24E8911104C094E951
:100CD0009093BC000895FA0131913093BB002093AA
:100CE000BC003091BC0037FFFCCF9150AF01EDCF7D
:100CF000DF92EF92FF920F931F93CF93DF93D82E43
:100D0000D92F7B018A01C22F2C2FA801B7018D2D6D
:100D10009D2F0E941706282F30E0E20EF31EC81BFD
:100D2000020F131FC111F0CF80E0DF91CF911F910F
:100D30000F91FF90EF90DF900895CF93DF9300D055
:100D400000D0CDB7DEB71092B20069837A838B836F
:100D50009C8369817A818B819C810E946810609359
:100D6000B30082E48093B00086E08093B10082E01B
:100D7000809370000F900F900F900F90DF91CF91A4
:100D800008950895CB016D32710501F140EB52E1F8
:100D900065E073E48E329105E9F043E958E16BEFC9
:100DA00072E48F329105D1F04AE554EE6CEE72E4B4
:100DB00080339105B9F040E050E0BA0181339105EC
:100DC00049F447EE5BE76FED72E414C045E85BE081
:100DD0006DE073E48233910509F482C08333910599
:100DE00009F483C08433910509F484C085339105E7
:100DF00009F485C08633910509F486C087339105CF
:100E000009F487C08833910509F488C089339105B6
:100E100009F489C08A33910509F48AC08B3391059E
:100E200009F48BC08C33910509F48CC08D33910586
:100E300009F48DC08E33910509F48EC08F3391056E
:100E400009F48FC08034910509F490C08134910574
:100E500009F491C08234910509F492C0833491055C
:100E600009F493C08434910509F494C08534910544
:100E700009F495C08634910509F496C0873491052C
:100E800009F497C08834910509F498C08934910514
:100E900009F499C08A34910509F49AC08B349105FC
:100EA00009F49BC08C34910509F49CC08D349105E4
:100EB00009F49DC08E34910509F49EC08F349105CC
:100EC00009F49FC08035910509F4A0C081359105D2
:100ED00021F44AE45CE066E871E4CB01BA010895CC
:100EE00048EF53ED62ED72E489CF4BEC51EE66ECC6
:100EF00072E488CF46EA5BE96BEB72E487CF4CE49F
:100F000057EF60EB72E486CF48E05CEE66EA72E48D
:100F100085CF44EA50E76DE972E484CF44EF5DE7A2
:100F200064E972E483CF47EC5BE06CE872E482CF63
:100F300042EF52E164E872E481CF43E958E169E7A6
:100F400072E480CF4AE554EE6AE672E47FCF47EE62
:100F50005BE76DE572E47ECF48EF53ED60E572E448
:100F60007DCF4EE452EE64E472E47CCF46EA5BE966
:100F700069E372E47BCF4FEC57EF6EE272E47ACF15
:100F800045E85BEE64E272E479CF44EA50E76BE156
:100F900072E478CF44EF5DE762E172E477CF44E436
:100FA0005BE06AE072E476CF4FE652E162E072E421
:100FB00075CF43E958E165EF71E474CF44E553EE32
:100FC00066EE71E473CF41EE5AE769ED71E472CFDA
:100FD00042EF52ED6CEC71E471CF48E451EE60ECFD
:100FE00071E470CF46EA5BE965EB71E46FCF4FECDB
:100FF00057EF6AEA71E471CF45E85BEE60EA71E4AD
:101000006CCF44EA50E767E971E467CF4EEE5CE7E6
:101010006EE871E462CFCF93DF9300D000D0CDB7FC
:10102000DEB71092B20049835A836B837C83698157
:101030007A818B819C810E9468106093B30082E466
:101040008093B00086E08093B10082E080937000CE
:101050000F900F900F900F90DF91CF910895109205
:10106000B3001092B0001092B1000895CF93DF93B7
:1010700000D000D000D0CDB7DEB78E839D837894AA
:101080006AE470E08E819D810E94C20669837A8342
:101090008B839C8369817A818B819C810E949D06D0
:1010A0002FEF82E597E0215080409040E1F700C0AB
:1010B0000000F89478942FEF82E597E0215080406B
:1010C0009040E1F700C0000068E470E08E819D81EF
:1010D0000E94C20669837A838B839C8369817A81AB
:1010E0008B819C810E949D062FEF82E597E0215025
:1010F00080409040E1F700C00000F89478942FEF12
:1011000082E597E0215080409040E1F700C0000068
:101110006DE470E08E819D810E94C20669837A83AE
:101120008B839C8369817A818B819C810E949D063F
:101130002FEF84E39CE0215080409040E1F700C015
:101140000000F8942FEF82E597E021508040904016
:10115000E1F700C0000026960FB6F894DEBF0FBE80
:10116000CDBFDF91CF9108952F923F924F925F9222
:101170006F927F928F929F92AF92BF92CF92DF92A7
:10118000EF92FF920F931F93CF93DF93CDB7DEB70C
:1011900028970FB6F894DEBF0FBECDBF1C01789420
:1011A00062E370E00E94C2064B015C0169839A828F
:1011B0008B83BC8269817A818B819C810E949D0690
:1011C0002FE38DE093E0215080409040E1F700C094
:1011D0000000F8948FE19EE40197F1F700C0000051
:1011E000789464E370E0C1010E94C2068B01888795
:1011F0009F8369831A838B839C8369817A818B8126
:101200009C810E949D069FE32DE083E09150204049
:101210008040E1F700C00000F8948FE19EE4019760
:10122000F1F700C00000789467E370E0C1010E940C
:10123000C2066B017C016983DA828B83FC8269813F
:101240007A818B819C810E949D069FE32DE083E043
:10125000915020408040E1F700C00000F8948FE1F9
:101260009EE40197F1F700C00000789409831A8387
:1012700098859B832F812C8369817A818B819C81C6
:101280000E949D068FE39DE023E081509040204026
:10129000E1F700C00000F8948FE19EE40197F1F7B8
:1012A00000C0000078946BE370E0C1010E94C206A8
:1012B0002B013C0169835A828B837C8269817A810C
:1012C0008B819C810E949D069FEB27E289E09150D3
:1012D00020408040E1F700C00000F8948FE39CE9D3
:1012E0000197F1F700C00000789449825A826B821E
:1012F0007C8269817A818B819C810E949D069FEB13
:1013000027E289E0915020408040E1F700C00000D2
:10131000F8948FE19EE40197F1F700C00000789403
:1013200069E370E0C1010E94C2062B013C016983A0
:101330005A828B837C8269817A818B819C810E9415
:101340009D069FEF24E38CE0915020408040E1F720
:1013500000C00000F8948FE59AEE0197F1F700C005
:101360000000789489829A82AB82BC8269817A81FA
:101370008B819C810E949D069FE32DE083E091502C
:1013800020408040E1F700C00000F8948FE295E72C
:101390000197F1F700C00000789409831A839885BB
:1013A0009B832F812C8369817A818B819C810E9410
:1013B0009D068FE39DE023E0815090402040E1F7BF
:1013C00000C00000F8948FE295E70197F1F700C0A4
:1013D00000007894C982DA82EB82FC8269817A818A
:1013E0008B819C810E949D069FE32DE083E09150BC
:1013F00020408040E1F700C00000F8948FE19EE4B7
:101400000197F1F700C00000789409831A8398854A
:101410009B832F812C8369817A818B819C810E949F
:101420009D068FE39DE023E0815090402040E1F74E
:1014300000C00000F8948FE19EE40197F1F700C02E
:101440000000789449825A826B827C8269817A8119
:101450008B819C810E949D069FEB27E289E0915041
:1014600020408040E1F700C00000F8948FE39CE941
:101470000197F1F700C00000789449825A826B828C
:101480007C8269817A818B819C810E949D069FEB81
:1014900027E289E0915020408040E1F700C0000041
:1014A000F8948FE19EE40197F1F700C00000789472
:1014B000C982DA82EB82FC8269817A818B819C818C
:1014C0000E949D069FEB27E289E0915020408040DA
:1014D000E1F700C00000F8948FE097E20197F1F780
:1014E00000C00000789466E370E0C1010E94C2066B
:1014F0001B018D839E8369833A828B839C836981E0
:101500007A818B819C810E949D069FE32DE083E080
:10151000915020408040E1F700C00000F8948FE037
:1015200097E20197F1F700C00000789409831A83CD
:1015300098859B832F812C8369817A818B819C8103
:101540000E949D068FE79AE126E08150904020405E
:10155000E1F700C00000F8948FE39CE90197F1F7F0
:1015600000C00000789489829A82AB82BC82698133
:101570007A818B819C810E949D069FE32DE083E010
:10158000915020408040E1F700C00000F8948FE1C6
:101590009EE40197F1F700C00000789409831A8354
:1015A00098859B832F812C8369817A818B819C8193
:1015B0000E949D068FE39DE023E0815090402040F3
:1015C000E1F700C00000F8948FE19EE40197F1F785
:1015D00000C000007894C982DA82EB82FC826981C3
:1015E0007A818B819C810E949D069FE32DE083E0A0
:1015F000915020408040E1F700C00000F8948FE156
:101600009EE40197F1F700C00000789409831A83E3
:1016100098859B832F812C8369817A818B819C8122
:101620000E949D068FE39DE023E081509040204082
:10163000E1F700C00000F8948FE19EE40197F1F714
:1016400000C000007894C982DA82EB82FC82698152
:101650007A818B819C810E949D069FEB27E289E025
:10166000915020408040E1F700C00000F8948FE1E5
:101670009EE40197F1F700C00000789449825A82F5
:101680006B827C8269817A818B819C810E949D061C
:101690009FE72AE186E0915020408040E1F700C0BA
:1016A0000000F8948FE19EE40197F1F700C000007C
:1016B000789429823A829D819B832E812C83698133
:1016C0007A818B819C810E949D068FEB97E229E0B5
:1016D000815090402040E1F700C00000F8948FE175
:1016E0009EE40197F1F700C00000789409831A8303
:1016F00098859B832F812C8369817A818B819C8142
:101700000E949D068FE39DE023E0815090402040A1
:10171000E1F700C00000F8948FE295E70197F1F738
:1017200000C00000789489829A82AB82BC82698171
:101730007A818B819C810E949D069FE72AE186E049
:10174000915020408040E1F700C00000F8948FE500
:101750009AEE0197F1F700C00000789489829A828E
:10176000AB82BC8269817A818B819C810E949D06BB
:101770009FEF24E38CE0915020408040E1F700C0CF
:101780000000F894789489829A82AB82BC82698145
:101790007A818B819C810E949D069FEF24E38CE0DF
:1017A000915020408040E1F700C00000F8948FE3A2
:1017B0009CE90197F1F700C00000789449825A82B1
:1017C0006B827C8269817A818B819C810E949D06DB
:1017D0009FE72FE482E1915020408040E1F700C074
:1017E0000000F8948FE19EE40197F1F700C000003B
:1017F0007894C982DA82EB82FC8269817A818B815A
:101800009C810E949D069FE724E88EE19150204034
:101810008040E1F700C00000F89428960FB6F894D5
:10182000DEBF0FBECDBFDF91CF911F910F91FF9013
:10183000EF90DF90CF90BF90AF909F908F907F9070
:101840006F905F904F903F902F900895CF93DF93CC
:10185000EC010E94070D84E68C838EE18D838CE37E
:101860008E83DF91CF9108951F93CF93DF93182F2D
:10187000D92FC62F85B1897F85B9812F0E94F00CA1
:101880006EEF6C0F812F9D2FDF91CF911F910C94E4
:10189000FB0C1F93CF93DF93D82FC92F162F85B141
:1018A000897F85B92FEF81EE94E0215080409040F0
:1018B000E1F700C0000085B1866085B98D2F9C2FAF
:1018C0000E94F00C612F8D2F9C2FDF91CF911F91E3
:1018D0000C94FB0CCF93DF93D82FC92F299A2A9809
:1018E0002FEF81EE94E0215080409040E1F700C05E
:1018F000000029982A9A60E58D2F9C2F0E94F00CF9
:101900006BE48D2F9C2FDF91CF910C94FB0CCF9328
:10191000DF93D82FC92F2A9A29982FEF81EE94E0D0
:10192000215080409040E1F700C000002A98299A99
:1019300060E58D2F9C2F0E94F00C6BE48D2F9C2F67
:10194000DF91CF910C94FB0CCF93DF93EC0185B129
:10195000866085B92FEF81EE94E021508040904061
:10196000E1F700C0000085B1897F85B960E0CE0154
:101970000E94F00C6C81CE01DF91CF910C94FB0C96
:10198000CF93DF93D82FC92F60E00E94F00C60E066
:101990008D2F9C2FDF91CF910C94FB0CFC01608369
:1019A00041830895FC0180810895FC01818108959F
:1019B000FB0181818F5F81830895FB0181818150CB
:1019C00081830895FB0180818F5F80830895FB01EF
:1019D0008081815080830895FC0160834183089554
:1019E000FC018181689FC0011124628170E00E9426
:1019F0004E1067BD0895FC018181689FC0011124CC
:101A0000628170E00E944E106D5F68BD0895CF93B3
:101A1000DF93EC018FEF898384E68A8384B1886148
:101A200084B984B1866084B984B5816A84BD85B582
:101A3000826085BD16BC60E0CE010E94F00C60E0C3
:101A4000CE01DF91CF910C94FB0C81B1806381B901
:101A500012B821E040E060E082E191E00E9497034B
:101A600023E043E061E08DE091E00E94970387E08E
:101A700091E00E9449040E946A0090E080E0C1E089
:101A800088309105E8F7FC01E353FF4E0C94621097
:101A90009C0180910501882371F01092050181E07D
:101AA00090E040910401442341F010920401C0935E
:101AB000030182E0C8C0C901F4CF009751F3D82FC9
:101AC000192F87E091E00E94780480910501882316
:101AD000B1F01092050187E091E00E94490483E093
:101AE00090E020910401222369F01092040187E024
:101AF00091E00E944904C093030184E0A4C08D2FAB
:101B0000912FEFCF81309105E1F2C093030103974C
:101B100081F687E091E00E9450042FEF83ED90E37F
:101B2000215080409040E1F700C0000087E091E044
:101B30000E9449042FEF89E698E1215080409040AF
:101B4000E1F700C000000E94500210922101809134
:101B50001D01893210F0C09321010E94C2028091C0
:101B60001E01813069F0823029F1882309F40BC10C
:101B700087E069C06AE171E0CB010E94D80C08C11E
:101B8000809121016AE171E0882349F0CB010E9434
:101B9000D80C6AE171E0CB010E94E20CFEC0CB01DF
:101BA0000E94D80C6AE171E0CB010E94E20C6AE16C
:101BB00071E0ECCF809121018111EBCF6AE171E0FE
:101BC000CB010E94E20CE5CF1092030187E091E087
:101BD0000E9464042FEF83ED90E3215080409040F9
:101BE000E1F700C0000087E091E00E9449042FEF78
:101BF00089E698E1215080409040E1F700C0000064
:101C00000E9489021092210180911D01893210F0F9
:101C1000C09321010E94C20280911E018130D9F03F
:101C2000823071F181110EC0809121016AE171E071
:101C3000882359F0CB010E94E20C6AE171E0CB01EC
:101C40000E94DD0C85E090E01BCFCB010E94E20CEE
:101C50006AE171E0EFCF80912101882331F06AE1E0
:101C600071E0CB010E94D80CF3CF6AE171E0CB01A7
:101C70000E94D80C6AE171E0CB010E94E20CEFCF28
:101C800080912101882331F06AE171E0CB010E944B
:101C9000D80CD3CF6AE171E0CB010E94D80CF4CF0D
:101CA000CB010E94D80C6AE171E0CB010E94E70CE5
:101CB0006AE171E0AEC06AE171E0CB010E94DD0C27
:101CC0006AE171E0CB010E94E70C8CC06AE171E02F
:101CD000CB010E94DD0C7BC06AE171E0CB010E9468
:101CE000E20C6AE171E0CB010E94DD0C5DC08AE18B
:101CF00091E00E94D50CD82F813009F0AFC00E942E
:101D000089021092210180911D01893210F0D09337
:101D100021010E94C202E0911E01E83008F028CFA4
:101D2000F0E0EB52FF4E809121010C9462108AE1A9
:101D300091E00E94D20C873039F48AE191E00E9450
:101D4000D50C833009F498C00E94500210922101F2
:101D500080911D01893260F40E94C202E0911E014F
:101D6000E83008F005CFF0E0E352FF4E0C9462102B
:101D7000C0932101F1CF6091210180911A019091CE
:101D80001B010E94480180912101882309F4F2CEB1
:101D90006AE171E0CB010E94D80C86E054CF8091BB
:101DA0002101882309F498CF6AE171E0CB010E94F8
:101DB000E20C0DC06091210180911A0190911B01EC
:101DC0000E94CC0180912101882309F47FCF6AE130
:101DD00071E0CB010E94DD0CE0CF809121018823CE
:101DE00009F469CF6AE171E0CB010E94DD0C14C0F7
:101DF00080912101811110C06AE171E0CB010E9444
:101E0000E70C0AC0809121016AE171E0882309F49E
:101E100047CFCB010E94D80C6AE171E0CB010E9450
:101E2000E70CBBCF2FEF83ED90E321508040904033
:101E3000E1F700C000008AE191E00E94D20C8730F7
:101E400031F48AE191E00E94D50C8823A9F08AE15F
:101E500091E00E94D20C873009F449CF8AE191E0E9
:101E60000E94D20C873009F062CF8AE191E00E9493
:101E7000D50C823009F05BCF0E94890210922101BB
:101E800080911D01893208F444CFC093210141CFD4
:101E900081B1806381B986E091E00E94360881B10A
:101EA0008F7C81B978942FEF89E698E121508040AA
:101EB0009040E1F700C000008AE191E00E94D20C5E
:101EC0000E9482008AE191E00E94D20C482F60912A
:101ED000170181E0860F8093170170E088E191E09F
:101EE0000E94CF058FE097E20197F1F700C0000054
:101EF0008AE191E00E94D50C0E9482008AE191E083
:101F00000E94D50C482F6091170181E0860F8093C5
:101F1000170170E088E191E00E94CF058FE097E221
:101F20000197F1F700C0000080911C018F5F809342
:101F30001C0104E110E087E091E00E947804015068
:101F40001109C9F787E091E00E94490480910501D9
:101F5000882379F380910501882309F4ADCF10928D
:101F6000050187E091E00E9449046CCE87E091E092
:101F70000E94640481B1806381B960E370E086E00F
:101F800091E00E94C206462F572FBC0186E091E0E7
:101F90000E940B089FEF23ED80E39150204080408A
:101FA000E1F700C0000081B18F7C81B987E091E04A
:101FB0000E94B004FBCF87E091E00E9450049FEFA5
:101FC00023ED80E3915020408040E1F700C0000005
:101FD00087E091E00E9491049FEF23ED80E3915010
:101FE00020408040E1F700C0000087E091E00E94BF
:101FF0004904FFCF0F938AE291E00E940B0483E231
:1020000091E00E94260C8FE191E00E94C70340E01E
:1020100060E08AE191E00E94CE0C89E191E00E94AB
:102020000B0488E191E00E94F80442E06AE270E06B
:1020300082E191E00E94850343E06AE270E08DE076
:1020400091E00E94850307E026E048E250E067E265
:1020500070E087E091E00E942F0486E091E00F910C
:102060000C94C10688E191E00E94EE048FE191E0BA
:102070000C94CD03AA1BBB1B51E107C0AA1FBB1FB9
:10208000A617B70710F0A61BB70B881F991F5A9504
:10209000A9F780959095BC01CD01089597FB072E77
:1020A00016F4009407D077FD09D00E943A1007FC7F
:1020B00005D03EF4909581959F4F08957095619558
:1020C0007F4F0895EE0FFF1F0590F491E02D0994C6
:1020D0000E949F1088F09F5798F0B92F9927B75109
:1020E000B0F0E1F0660F771F881F991F1AF0BA95BC
:1020F000C9F714C0B13091F00E94B910B1E0089551
:102100000C94B910672F782F8827B85F39F0B93F42
:10211000CCF3869577956795B395D9F73EF490956E
:102120008095709561957F4F8F4F9F4F089557FD14
:102130009058440F551F59F05F3F71F04795880F35
:1021400097FB991F61F09F3F79F0879508951216CC
:1021500013061406551FF2CF4695F1DF08C0161678
:1021600017061806991FF1CF869571056105089429
:102170000895E894BB2766277727CB0197F9089540
:1021800010E0CFE3D0E004C0FE010E94621021966F
:10219000C034D107C9F7F894FFCF480D400DDB0FCD
:1021A000850DE40D120F480FB60FC50E040FFA0E81
:1021B000EF0EE40ED10EDC0DC20DBB0EC00DDA0D1C
:0A21C000CF0EDA0EED0EF80E020F3E
:0221CA00A00073
:00000001FF
